:100000000C943A000C9444000C9444000C9444006A
:100010000C9444000C9444000C9444000C94440050
:100020000C9444000C9444000C9444000C94440040
:100030000C9444000C9444000C9444000C94440030
:100040000C9444000C9444000C9444000C94440020
:100050000C9444000C9444000C9444000C94440010
:100060000C9444000C9444000C9444000C94440000
:100070000C94440011241FBECFEFD2E0DEBFCDBFF1
:100080000E9446000C94A0000C940000E1E6F0E011
:1000900080E88083108284EF87B98FEF84B98AB9B2
:1000A00040E021E030E060E070E0E0E016C0423087
:1000B00098F0433089F0C901042E02C0880F991FBF
:1000C0000A94E2F788B95FEF83ED90E351508040E6
:1000D0009040E1F700C000004F5F483040F318B88F
:1000E000CB01A901082E02C0440F551F0A94E2F764
:1000F00045B9FFEF43ED50E3F15040405040E1F788
:1001000000C0000001968830910559F715B8CB0161
:10011000A901082E02C0440F551F0A94E2F74BB9FB
:10012000FFEF43ED50E3F15040405040E1F700C095
:10013000000001968830910559F71BB84E2FCDCF9E
:04014000F894FFCF61
:00000001FF
